{
  "contractName": "BridgePolygonV1",
  "abi": [
    {
      "anonymous": false,
      "inputs": [
        {
          "indexed": false,
          "internalType": "address",
          "name": "Matic_Contract_Address",
          "type": "address"
        },
        {
          "indexed": false,
          "internalType": "address",
          "name": "Owner",
          "type": "address"
        },
        {
          "indexed": false,
          "internalType": "uint256",
          "name": "TokenId",
          "type": "uint256"
        }
      ],
      "name": "DepositedERC721",
      "type": "event"
    },
    {
      "anonymous": false,
      "inputs": [
        {
          "indexed": false,
          "internalType": "uint8",
          "name": "version",
          "type": "uint8"
        }
      ],
      "name": "Initialized",
      "type": "event"
    },
    {
      "anonymous": false,
      "inputs": [
        {
          "indexed": false,
          "internalType": "address",
          "name": "Ethereum_Contract_Address",
          "type": "address"
        },
        {
          "indexed": false,
          "internalType": "address",
          "name": "Matic_Contract_Address",
          "type": "address"
        }
      ],
      "name": "Mapped",
      "type": "event"
    },
    {
      "anonymous": false,
      "inputs": [
        {
          "indexed": true,
          "internalType": "address",
          "name": "previousOwner",
          "type": "address"
        },
        {
          "indexed": true,
          "internalType": "address",
          "name": "newOwner",
          "type": "address"
        }
      ],
      "name": "OwnershipTransferred",
      "type": "event"
    },
    {
      "anonymous": false,
      "inputs": [
        {
          "indexed": false,
          "internalType": "address",
          "name": "Matic_Contract_Address",
          "type": "address"
        },
        {
          "indexed": false,
          "internalType": "address",
          "name": "Owner",
          "type": "address"
        },
        {
          "indexed": false,
          "internalType": "uint256",
          "name": "TokenId",
          "type": "uint256"
        }
      ],
      "name": "WithdrawnERC721",
      "type": "event"
    },
    {
      "inputs": [
        {
          "internalType": "address",
          "name": "",
          "type": "address"
        }
      ],
      "name": "MapAddressesEthereum",
      "outputs": [
        {
          "internalType": "address",
          "name": "",
          "type": "address"
        }
      ],
      "stateMutability": "view",
      "type": "function",
      "constant": true
    },
    {
      "inputs": [
        {
          "internalType": "address",
          "name": "",
          "type": "address"
        }
      ],
      "name": "MapAddressesMatic",
      "outputs": [
        {
          "internalType": "address",
          "name": "",
          "type": "address"
        }
      ],
      "stateMutability": "view",
      "type": "function",
      "constant": true
    },
    {
      "inputs": [
        {
          "internalType": "address",
          "name": "",
          "type": "address"
        },
        {
          "internalType": "address",
          "name": "",
          "type": "address"
        }
      ],
      "name": "MapAddressesStatus",
      "outputs": [
        {
          "internalType": "bool",
          "name": "",
          "type": "bool"
        }
      ],
      "stateMutability": "view",
      "type": "function",
      "constant": true
    },
    {
      "inputs": [],
      "name": "owner",
      "outputs": [
        {
          "internalType": "address",
          "name": "",
          "type": "address"
        }
      ],
      "stateMutability": "view",
      "type": "function",
      "constant": true
    },
    {
      "inputs": [],
      "name": "renounceOwnership",
      "outputs": [],
      "stateMutability": "nonpayable",
      "type": "function"
    },
    {
      "inputs": [
        {
          "internalType": "address",
          "name": "newOwner",
          "type": "address"
        }
      ],
      "name": "transferOwnership",
      "outputs": [],
      "stateMutability": "nonpayable",
      "type": "function"
    },
    {
      "inputs": [],
      "name": "initialize",
      "outputs": [],
      "stateMutability": "nonpayable",
      "type": "function"
    },
    {
      "inputs": [
        {
          "internalType": "address",
          "name": "_eth_contract_address",
          "type": "address"
        },
        {
          "internalType": "address",
          "name": "_matic_contract_address",
          "type": "address"
        }
      ],
      "name": "MapContracts",
      "outputs": [],
      "stateMutability": "nonpayable",
      "type": "function"
    },
    {
      "inputs": [
        {
          "internalType": "address",
          "name": "_matic_contract_address",
          "type": "address"
        },
        {
          "internalType": "uint256",
          "name": "_token_id",
          "type": "uint256"
        }
      ],
      "name": "depositERC721",
      "outputs": [],
      "stateMutability": "nonpayable",
      "type": "function"
    },
    {
      "inputs": [
        {
          "components": [
            {
              "internalType": "address",
              "name": "matic_contract_address",
              "type": "address"
            },
            {
              "internalType": "address",
              "name": "owner_address",
              "type": "address"
            },
            {
              "internalType": "uint256",
              "name": "tokenId",
              "type": "uint256"
            },
            {
              "internalType": "bytes32",
              "name": "messageHash",
              "type": "bytes32"
            }
          ],
          "internalType": "struct BridgePolygonV1.WithdrawOrder",
          "name": "_order",
          "type": "tuple"
        },
        {
          "internalType": "bytes",
          "name": "_signature",
          "type": "bytes"
        }
      ],
      "name": "withdrawERC721",
      "outputs": [],
      "stateMutability": "nonpayable",
      "type": "function"
    }
  ],
  "bytecode": "0x608060405234801561001057600080fd5b5061106d806100206000396000f3fe608060405234801561001057600080fd5b506004361061009e5760003560e01c80638129fc1c116100665780638129fc1c146101575780638da5cb5b1461015f578063d29a4bf614610170578063e251fdb414610183578063f2fde38b146101ac57600080fd5b8063279ce969146100a3578063496707d9146100e95780635d8043a5146101275780635eb593fe1461013c578063715018a61461014f575b600080fd5b6100cc6100b1366004610cf5565b6066602052600090815260409020546001600160a01b031681565b6040516001600160a01b0390911681526020015b60405180910390f35b6101176100f7366004610d12565b606760209081526000928352604080842090915290825290205460ff1681565b60405190151581526020016100e0565b61013a610135366004610d12565b6101bf565b005b61013a61014a366004610dee565b610429565b61013a610643565b61013a610657565b6033546001600160a01b03166100cc565b61013a61017e366004610ea1565b610768565b6100cc610191366004610cf5565b6065602052600090815260409020546001600160a01b031681565b61013a6101ba366004610cf5565b610912565b6001600160a01b0382163b6101ef5760405162461bcd60e51b81526004016101e690610ecd565b60405180910390fd5b6001600160a01b038181166000908152606660205260409020541615801561022f57506001600160a01b0382811660009081526065602052604090205416155b801561026157506001600160a01b0380831660009081526067602090815260408083209385168352929052205460ff16155b6102bf5760405162461bcd60e51b815260206004820152602960248201527f427269646765506f6c79676f6e3a20436f6e747261637420697320616c726561604482015268191e481b585c1c195960ba1b60648201526084016101e6565b336001600160a01b0316826001600160a01b0316638da5cb5b6040518163ffffffff1660e01b8152600401602060405180830381865afa158015610307573d6000803e3d6000fd5b505050506040513d601f19601f8201168201806040525081019061032b9190610f04565b6001600160a01b03161461038d5760405162461bcd60e51b815260206004820152602360248201527f427269646765506f6c79676f6e3a20596f7520617265206e6f7420656c696769604482015262626c6560e81b60648201526084016101e6565b6001600160a01b03818116600081815260666020908152604080832080546001600160a01b03199081169689169687179091558584526065835281842080549091168517905560678252808320848452825291829020805460ff1916600117905581519384528301919091527f443a82120fb0d95a23c1779bdd1031799b0687212eac29081b2f0e17522dee3991015b60405180910390a15050565b61044961043e6033546001600160a01b031690565b836060015183610988565b801561047557506068816040516104609190610f45565b9081526040519081900360200190205460ff16155b6104c15760405162461bcd60e51b815260206004820152601b60248201527f427269646765506f6c79676f6e3a20554e415554484f5249534544000000000060448201526064016101e6565b60208201516001600160a01b0316331461051d5760405162461bcd60e51b815260206004820152601c60248201527f427269646765506f6c79676f6e3a20496e76616c6964204f776e65720000000060448201526064016101e6565b81516001600160a01b03908116600090815260666020526040902054166105565760405162461bcd60e51b81526004016101e690610ecd565b60016068826040516105689190610f45565b90815260408051918290036020018220805493151560ff199094169390931790925583519184015163140e25ad60e31b825260048201526001600160a01b039091169063a0712d68906024016020604051808303816000875af11580156105d3573d6000803e3d6000fd5b505050506040513d601f19601f820116820180604052508101906105f79190610f61565b50815160408084015181516001600160a01b039093168352336020840152908201527f5b917925bb22ff9e97a81b93b142d472716ae03595d90b9c9aff99456b7fb9f99060600161041d565b61064b610acc565b6106556000610b26565b565b600054610100900460ff16158080156106775750600054600160ff909116105b806106915750303b158015610691575060005460ff166001145b6106f45760405162461bcd60e51b815260206004820152602e60248201527f496e697469616c697a61626c653a20636f6e747261637420697320616c72656160448201526d191e481a5b9a5d1a585b1a5e995960921b60648201526084016101e6565b6000805460ff191660011790558015610717576000805461ff0019166101001790555b61071f610b78565b8015610765576000805461ff0019169055604051600181527f7f26b83ff96e1f2b6a682f133852f6798a09c465da95921460cefb38474024989060200160405180910390a15b50565b6001600160a01b038281166000908152606560205260409020541661079f5760405162461bcd60e51b81526004016101e690610ecd565b6040516331a9108f60e11b81526004810182905233906001600160a01b03841690636352211e90602401602060405180830381865afa1580156107e6573d6000803e3d6000fd5b505050506040513d601f19601f8201168201806040525081019061080a9190610f04565b6001600160a01b0316146108605760405162461bcd60e51b815260206004820181905260248201527f427269646765506f6c79676f6e3a204e6f74206120746f6b656e206f776e657260448201526064016101e6565b604051630852cd8d60e31b8152600481018290526001600160a01b038316906342966c68906024016020604051808303816000875af11580156108a7573d6000803e3d6000fd5b505050506040513d601f19601f820116820180604052508101906108cb9190610f61565b50604080516001600160a01b03841681523360208201529081018290527f816951017bbdb395e05a86d9ff716953c8ea003152bad3825fa891ce076469729060600161041d565b61091a610acc565b6001600160a01b03811661097f5760405162461bcd60e51b815260206004820152602660248201527f4f776e61626c653a206e6577206f776e657220697320746865207a65726f206160448201526564647265737360d01b60648201526084016101e6565b61076581610b26565b60008060006109978585610ba7565b909250905060008160048111156109b0576109b0610f83565b1480156109ce5750856001600160a01b0316826001600160a01b0316145b156109de57600192505050610ac5565b600080876001600160a01b0316631626ba7e60e01b8888604051602401610a06929190610f99565b60408051601f198184030181529181526020820180516001600160e01b03166001600160e01b0319909416939093179092529051610a449190610f45565b600060405180830381855afa9150503d8060008114610a7f576040519150601f19603f3d011682016040523d82523d6000602084013e610a84565b606091505b5091509150818015610a97575080516020145b8015610abe57508051630b135d3f60e11b90610abc9083016020908101908401610fd3565b145b9450505050505b9392505050565b6033546001600160a01b031633146106555760405162461bcd60e51b815260206004820181905260248201527f4f776e61626c653a2063616c6c6572206973206e6f7420746865206f776e657260448201526064016101e6565b603380546001600160a01b038381166001600160a01b0319831681179093556040519116919082907f8be0079c531659141344cd1fd0a4f28419497f9722a3daafe3b4186f6b6457e090600090a35050565b600054610100900460ff16610b9f5760405162461bcd60e51b81526004016101e690610fec565b610655610bec565b6000808251604103610bdd5760208301516040840151606085015160001a610bd187828585610c1c565b94509450505050610be5565b506000905060025b9250929050565b600054610100900460ff16610c135760405162461bcd60e51b81526004016101e690610fec565b61065533610b26565b6000807f7fffffffffffffffffffffffffffffff5d576e7357a4501ddfe92f46681b20a0831115610c535750600090506003610cd7565b6040805160008082526020820180845289905260ff881692820192909252606081018690526080810185905260019060a0016020604051602081039080840390855afa158015610ca7573d6000803e3d6000fd5b5050604051601f1901519150506001600160a01b038116610cd057600060019250925050610cd7565b9150600090505b94509492505050565b6001600160a01b038116811461076557600080fd5b600060208284031215610d0757600080fd5b8135610ac581610ce0565b60008060408385031215610d2557600080fd5b8235610d3081610ce0565b91506020830135610d4081610ce0565b809150509250929050565b634e487b7160e01b600052604160045260246000fd5b600082601f830112610d7257600080fd5b813567ffffffffffffffff80821115610d8d57610d8d610d4b565b604051601f8301601f19908116603f01168101908282118183101715610db557610db5610d4b565b81604052838152866020858801011115610dce57600080fd5b836020870160208301376000602085830101528094505050505092915050565b60008082840360a0811215610e0257600080fd5b6080811215610e1057600080fd5b506040516080810167ffffffffffffffff8282108183111715610e3557610e35610d4b565b8160405285359150610e4682610ce0565b908252602085013590610e5882610ce0565b81602084015260408601356040840152606086013560608401528294506080860135925080831115610e8957600080fd5b5050610e9785828601610d61565b9150509250929050565b60008060408385031215610eb457600080fd5b8235610ebf81610ce0565b946020939093013593505050565b6020808252601e908201527f427269646765506f6c79676f6e3a20496e76616c696420616464726573730000604082015260600190565b600060208284031215610f1657600080fd5b8151610ac581610ce0565b60005b83811015610f3c578181015183820152602001610f24565b50506000910152565b60008251610f57818460208701610f21565b9190910192915050565b600060208284031215610f7357600080fd5b81518015158114610ac557600080fd5b634e487b7160e01b600052602160045260246000fd5b8281526040602082015260008251806040840152610fbe816060850160208701610f21565b601f01601f1916919091016060019392505050565b600060208284031215610fe557600080fd5b5051919050565b6020808252602b908201527f496e697469616c697a61626c653a20636f6e7472616374206973206e6f74206960408201526a6e697469616c697a696e6760a81b60608201526080019056fea264697066735822122027013f298e4f311e331d99532b967c9a08c24c4f9281977ea31d5b48e41fa0f264736f6c63430008100033",
  "immutableReferences": {},
  "source": "// SPDX-License-Identifier: MIT\npragma solidity 0.8.16;\n\nimport \"./Interfaces/IERC721Upgradeable.sol\";\nimport \"./Interfaces/IERC1155Upgradeable.sol\";\n\nimport \"@openzeppelin/contracts-upgradeable/access/OwnableUpgradeable.sol\";\nimport \"@openzeppelin/contracts-upgradeable/utils/AddressUpgradeable.sol\";\nimport \"@openzeppelin/contracts-upgradeable/utils/cryptography/SignatureCheckerUpgradeable.sol\";\n\ncontract BridgePolygonV1 is OwnableUpgradeable {\n    mapping(address => address) public MapAddressesEthereum;\n    mapping(address => address) public MapAddressesMatic;\n    mapping(address => mapping(address => bool)) public MapAddressesStatus;\n    mapping(bytes => bool) private checker;\n\n    struct WithdrawOrder {\n        address matic_contract_address;\n        address owner_address;\n        uint256 tokenId;\n        bytes32 messageHash;\n    }\n\n    // Events\n    event Mapped(\n        address Ethereum_Contract_Address,\n        address Matic_Contract_Address\n    );\n\n    event DepositedERC721(\n        address Matic_Contract_Address,\n        address Owner,\n        uint256 TokenId\n    );\n\n    event WithdrawnERC721(\n        address Matic_Contract_Address,\n        address Owner,\n        uint256 TokenId\n    );\n\n    function initialize() public initializer {\n        __Ownable_init();\n    }\n\n    function MapContracts(\n        address _eth_contract_address,\n        address _matic_contract_address\n    ) external virtual {\n        require(\n            AddressUpgradeable.isContract(_eth_contract_address),\n            \"BridgePolygon: Invalid address\"\n        );\n\n        require(\n            MapAddressesMatic[_matic_contract_address] == address(0) &&\n            MapAddressesEthereum[_eth_contract_address] == address(0) &&\n            !MapAddressesStatus[_eth_contract_address][_matic_contract_address],\n            \"BridgePolygon: Contract is already mapped\"\n        );\n        require(\n            OwnableUpgradeable(_eth_contract_address).owner() == msg.sender,\n            \"BridgePolygon: You are not eligible\"\n        );\n\n        MapAddressesMatic[_matic_contract_address] = _eth_contract_address;\n        MapAddressesEthereum[_eth_contract_address] = _matic_contract_address;\n        MapAddressesStatus[_eth_contract_address][_matic_contract_address] = true;\n\n        emit Mapped(_eth_contract_address, _matic_contract_address);\n    }\n\n    function depositERC721(address _matic_contract_address, uint256 _token_id)\n        external\n        virtual\n    {\n        require(\n            MapAddressesEthereum[_matic_contract_address] != address(0),\n            \"BridgePolygon: Invalid address\"\n        );\n        require(\n            IERC721Upgradeable(_matic_contract_address).ownerOf(_token_id) ==\n                msg.sender,\n            \"BridgePolygon: Not a token owner\"\n        );\n\n        IERC721Upgradeable(_matic_contract_address).burn(_token_id);\n\n        emit DepositedERC721(_matic_contract_address, msg.sender, _token_id);\n    }\n\n    function withdrawERC721(\n        WithdrawOrder memory _order,\n        bytes memory _signature\n    ) external virtual {\n        require(\n            SignatureCheckerUpgradeable.isValidSignatureNow(\n                owner(),\n                _order.messageHash,\n                _signature\n            ) && !checker[_signature],\n            \"BridgePolygon: UNAUTHORISED\"\n        );\n        require(_order.owner_address == msg.sender, \"BridgePolygon: Invalid Owner\");\n        require(\n            MapAddressesMatic[_order.matic_contract_address] != address(0),\n            \"BridgePolygon: Invalid address\"\n        );\n\n        checker[_signature] = true;\n\n        IERC721Upgradeable(_order.matic_contract_address).mint(_order.tokenId);\n\n        emit WithdrawnERC721(_order.matic_contract_address, msg.sender, _order.tokenId);\n    }\n}\n",
  "sourcePath": "/home/swatimalode/Documents/my-project/bridge/bridge-smartcontract/contracts/BridgePolygonV1.sol",
  "compiler": {
    "name": "solc",
    "version": "0.8.16+commit.07a7930e.Emscripten.clang"
  },
  "schemaVersion": "3.4.11",
  "updatedAt": "2022-12-23T04:24:48.995Z",
  "networkType": "ethereum",
  "devdoc": {
    "kind": "dev",
    "methods": {
      "owner()": {
        "details": "Returns the address of the current owner."
      },
      "renounceOwnership()": {
        "details": "Leaves the contract without owner. It will not be possible to call `onlyOwner` functions anymore. Can only be called by the current owner. NOTE: Renouncing ownership will leave the contract without an owner, thereby removing any functionality that is only available to the owner."
      },
      "transferOwnership(address)": {
        "details": "Transfers ownership of the contract to a new account (`newOwner`). Can only be called by the current owner."
      }
    },
    "version": 1
  },
  "userdoc": {
    "kind": "user",
    "methods": {},
    "version": 1
  }
}